:020000041000EA
:1000000000B5324B212058609868022188439860DF
:10001000D860186158612E4B002199600221596106
:100020000121F02299502B49196001219960352056
:1000300000F044F80222904214D00621196600F024
:1000400034F8196E01211966002018661A6600F04E
:100050002CF8196E196E196E052000F02FF8012189
:100060000842F9D1002199601B49196000215960AB
:100070001A491B48016001219960EB211966A021F2
:10008000196600F012F800219960164914480160C1
:100090000121996001BC002800D000471248134993
:1000A000086003C880F30888084703B5996A0420EC
:1000B0000142FBD001200142F8D103BD02B5186610
:1000C0001866FFF7F2FF186E186E02BD00000240BE
:1000D000000000180000070000035F00212200005C
:1000E000F4000018222000A00001001008ED00E03C
:1000F00000000000000000000000000074B24E7A12
:1001000000200420F7010010C3010010C5010010F9
:10011000C1010010C1010010C1010010C101001097
:10012000C1010010C1010010C1010010C701001081
:10013000C1010010C1010010C9010010CB01001065
:10014000CD010010CD010010CD010010CD01001037
:10015000CD010010CD010010CD010010CD01001027
:10016000CD010010CD010010CD010010CD01001017
:10017000CD010010CD010010CD010010CD01001007
:10018000CD010010CD010010CD010010CD010010F7
:10019000CD010010CD010010CD010010CD010010E7
:1001A000CD010010CD010010CD010010CD010010D7
:1001B000CD010010CD010010CD010010CD010010C7
:1001C00000BE00BE00BE00BE00BE00BE00F04BF888
:1001D000103800BEF2EB88716C2D0210982D0210C1
:1001E0003402001090A31AE700202149086006C8D5
:1001F00081F3088810471F48006800282FD10DA4FC
:100200000ECC002902D000F012F8F9E71A491B4A77
:10021000002000E001C19142FCD1194988471949E9
:1002200088471949884700BEFDE701C901C29A42C3
:10023000FBD37047982D0210C0000020105E0020F4
:10024000F88A021000000420E8000420E08B02106D
:1002500000100420001004200000000070470B482C
:100260000AF0FAF80047EFF30580C0B270470000CB
:1002700008ED00E0000000D0205E0020E82602200B
:10028000E1810010E12D00200D8300105756000081
:1002900006005250ABB36053640502100600525082
:1002A000861C030274050210060052505422A29DBF
:1002B0008405021005005250DE65F468E08B0210E0
:1002C000F8B5C0460448054B10B5834203D0044B33
:1002D000002B00D0984710BD105E0020105E00205B
:1002E0000000000006480749091A8910CB0F591869
:1002F00010B5491003D0044B002B00D0984710BD17
:10030000105E0020105E00200000000010B5074CB9
:100310002378002B09D1FFF7D5FF054B002B02D026
:10032000044800E000BF0123237010BD205F0020BF
:100330000000000070DE0110054B10B5002B03D04B
:100340000449054800E000BFFFF7CCFF10BDC046E0
:1003500000000000245F002070DE011070B5040072
:100360000023012225000360C36283624362C361EC
:100370000363431D4363C31DC3635242023342817F
:1003800002824364011D821D013B81630264836418
:10039000C3640B3034352065E365E3660530023312
:1003A00023676165A26520666166A2662900402216
:1003B000A4300AF0E1FF20002900402274300AF046
:1003C000DBFF220084230D32E250230088220C330D
:1003D000A3500432A3501032A3501032A350220075
:1003E000C4230F32E2502300C8220E33A35004323C
:1003F000A3501032A3501032A35070BD002070479C
:10040000002070477047C046FF2310B51940FE29F1
:1004100004D0FF2913D0FC290BD010BD0F230A4CA8
:10042000D1B202590B401D30FF30136101F07EFB49
:10043000F3E71D30D1B2FF3001F02CFBEDE795233F
:100440005B00C254E9E7C04630810100FF2310B5CC
:100450001940FD2905D0FE290DD0FC2906D0FF202A
:1004600010BD1D30FF3001F0EDFAF9E71D30FF300F
:1004700001F028FBF4E7024BC3581A69985CEFE7D8
:1004800030810100174B10B5994210DD164B99428F
:1004900012DD96235B00C358002B02D0134B994208
:1004A00009DD134B994219DD124B994203DD4018C7
:1004B0003130FF30027010BD0F4B99420ADD0F4BF7
:1004C0009942F4DC0E4BC358002BF0D0180000F01A
:1004D00029FCF0E70B4B9942E9DCECE70A4B994227
:1004E000E5DCE8E7FFBB0000FFBF0000FFDF000026
:1004F000FFF70000FFFB0000FFBD00000FBE000083
:1005000034810100FFBC0000FFEF0000084B10B574
:10051000CB180F2B07D8074BC358002B03D018005C
:1005200000F078FB03E040183130FF30007810BD58
:100530000042FFFF34810100164B70B5CB180C0050
:1005400005000F2B14D8144BC058002810D000F011
:1005500061FB611C09040F4B090CCB1806000F2B23
:1005600011D969183131FF3108780002304370BD6C
:100570002B193133FF33611C1E780904054B090C1C
:10058000CB180F2BEDD8044BE8580028E9D000F029
:1005900041FBEAE70042FFFF3481010070B5314BB7
:1005A0004C1C24040500240C1612994210DD2E4B1D
:1005B00099422BDD96235B00C358002B02D02B48B9
:1005C000814209DD2A48814244DD2A4B994203DDFC
:1005D00069183131FF310A70224B9C4204DC2C191E
:1005E0003134FF34267070BD1F4B9C422BDD9623A7
:1005F0005B00EB58002B02D01C4B9C42F3DD1C4BE4
:100600009C422BDD1B4B9C42E9DCECE71A4B9942E8
:1006100016DD1A4B9942DBDC194BC0580028D7D0A5
:10062000FF231A4000F07EFB144B9C42D7DC144B96
:10063000E8580028D3D03200210000F073FBD2E745
:10064000104B9942C4DC0C4B9C42EDDC0D4B9C42A0
:10065000C5DCC8E70C488142BADCCBE70A4B9C42B8
:10066000BDDCC0E7FFBB0000FFBF0000FFDF0000F4
:10067000FFF70000FFFB0000FFBD00000FBE000001
:1006800034810100FFBC0000FFEF0000F8B5DE463A
:1006900057464E46454604001D30E0B5FF300F007A
:1006A000160001F0A5F994232000012180225B00AF
:1006B0003130E15452020021FF300AF057FEF4229B
:1006C00092468223204804322750914657469C4642
:1006D0000432E451043390464F469B4663461B4820
:1006E0005B0026501A488025E05147469C46194831
:1006F0006D00E051184F8421675167465B461748EB
:100700004900E0511648174F5B006750E050164B08
:100710007C3A52011549E0180AF02EFE8022144B53
:100720001449E018D2000AF027FE002E05D0124B23
:1007300012492A00E0180AF01FFE20003CBC904637
:100740009946A246AB46F8BD3081010034810100D4
:100750000D05001085040010390500109D050010DE
:10076000090400104D04001030E10000CCE9011034
:1007700030F90000CCE5011030BD0000CCF90110CB
:1007800010B5034BC058002801D000F025FA10BD69
:100790003481010070B504001D30FF3001F0AEF966
:1007A0000E4BE058002801D000F020FB2000FFF79E
:1007B000D5FD8826952100258C208A22E02376000D
:1007C0004900A551655406494000896A52008900D4
:1007D0001B022550A150636270BDC04634810100E8
:1007E00000400540064B0100C0188C239B009C462E
:1007F000802210B5614412020AF0BEFD10BDC04651
:10080000300101008C239B000100C018044B8022A2
:100810009C4610B5614412020AF0AEFD10BDC04600
:100820003001010094235B00C05C704794220121D9
:100830005200835C30B54B4009D08A218C220025C0
:10084000054C4900A46A5200A400445085509422EB
:100850005200835430BDC04600400540F8B5CE4636
:100860004746962280B50D000968520082581B4BFE
:10087000C96880469146994209D196230022414693
:100880005B00CA5048460CBC90469946F8BD28000B
:1008900088470028F1D0124C124E134F444446446E
:1008A00003E020700134A6420AD02B6800209B6828
:1008B000BB42F6D02800984720700134A642F4D1FC
:1008C0002A680A4B12699A4204D1962342465B0079
:1008D000D550D7E728009047F7E7C046010400103D
:1008E00030C1000030E10000FD03001005040010DD
:1008F0009623002210B55B00C4580649064B4118E8
:10090000C3181A7001338B42FBD196235B00C2508F
:10091000200010BD30E1000030C10000007F431E08
:100920009841C0B27047C04603780878C01A704733
:1009300030B5050085B0012810D903AC0322002191
:1009400020000AF013FD064B064900932000032304
:10095000542225701BF042FD05B030BD0020FBE79E
:1009600029090010B85000200023020070B5FF21B3
:10097000040043611432031D197001339342FBD10B
:100980000022094D094B2978A261227723600029B2
:1009900003D0012320002B7070BD054B05480332A6
:1009A00054311CF0CFFBF4E7DA220220D4FA011014
:1009B00029090010B8500020F0B5DE4657464E46D3
:1009C00045469246030002000C008346FF21E0B535
:1009D000043383B01432197001339342FBD12023C6
:1009E0005B42002501262778984602E00135082D54
:1009F00015D03B002B411E42F8D040462843C0B2E0
:100A0000FFF796FF0028F1D03100827843789140BB
:100A10005B441A7901358A431A71082DE9D1002304
:100A2000984601935D4BA61C009308239946A14468
:100A300054460027083402E00136B14533D03578FA
:100A400000222B00443B594259412B00453B584260
:100A500043410F43414619438846002F4FD1434637
:100A6000002B31D13A2D3FD03B2D00D174E03C2DED
:100A700065D03D2D56D02800FFF75AFF0028DBD067
:100A80000378392B45D1534602331A780133392A7A
:100A90003FD09C42F9D10122009901360B78534096
:100AA0000B70B145CBD1009B1B78002B04D03920B3
:100AB000FFF73EFF00285DD1019803B03CBC904693
:100AC0009946A246AB46F0BD53460233197801332E
:100AD00045295BD0A342F9D1002FC3D05B4698696A
:100AE000FFF758FE3A2DBFD1534602331A7801332F
:100AF0003A2AC0D09C42F9D101230193BBE7534667
:100B000002331A780133442A3ED0A342F9D13A0085
:100B1000A5E701218278437891405B441A798A43A2
:100B20001A7189E7534602331A7801333D2AA2D05D
:100B30009C42F9D15B469869FFF778FE9BE75346E4
:100B400002331A7801333C2A95D09C42F9D15B4696
:100B50009869FFF757FE8EE7534602331A78013340
:100B60003B2A00D187E79C42F8D15B469869FFF7A2
:100B700039FE80E70122817843788A4011005B4486
:100B80001A798A431A7197E7002268E7002F00D18B
:100B900068E7002A00D165E7A0E7C046A010022060
:100BA00010B50400002100F039F9200001212030A7
:100BB00000F034F920000221403000F02FF920002D
:100BC0000321603000F02AF980234022E250002205
:100BD00004332000E25010BD70B5040000F0BEF9EF
:100BE0002000203000F0BAF92000403000F0B6F9C3
:100BF00020008425603000F0B1F96059002807D04A
:100C000000F046F9002803D1802340226051E250D1
:100C100070BDC0461B4B70B5CC180500012C06D02A
:100C2000022C23D0002C19D00024200070BD80237A
:100C3000C4580433C0580028F7D000F031F9002818
:100C40001DD028231C438423E8580028EDD000F051
:100C500025F90028E9D080231C43E6E78423C05807
:100C60000028E2D000F0CEF90400DEE78423C0586B
:100C700000240028D9D000F0D5F90400D5E72023BE
:100C80001C43E0E70042FFFF10B5232914D00CDC21
:100C9000212931D03BDC20290DD180230022C250F4
:100CA0000433C05000F02AF905E061290FD08029F3
:100CB00014D0602919D010BD80230322C250030034
:100CC000813260338350180000F018F9F3E7842371
:100CD000C0580028EFD000F0E9F8ECE78423C058B2
:100CE0000028E8D000F002F9E5E78423C058002886
:100CF000E1D000F0EBF8DEE780230122C2500300D0
:100D0000833220338350180000F0F8F8D3E78023B3
:100D10000222C2500300823240338350180000F098
:100D2000EDF8C8E7304B10B59C466144012904D06A
:100D3000022922D0002904D010BD1100FFF7A4FF22
:100D4000FAE7232A45D00BDC212A37D024DC202ADD
:100D5000F2D1802284238150C05000F0CFF8EBE71D
:100D6000612A24D0802A10D0602AE5D18423C0587B
:100D70000028E1D000F0AAF8DEE78423C05800285C
:100D8000DAD0110000F06EF9D6E78423C0580028AD
:100D9000D2D000F0ABF8CFE780230222C25003008C
:100DA000823240338350180000F0A8F8C4E784234F
:100DB000C0580028C0D000F079F8BDE78023012298
:100DC000C2500300833220338350180000F096F89D
:100DD000B2E780230322C250030081326033835084
:100DE000180000F08BF8A7E70042FFFF10B50400E1
:100DF00000F05CF92000203000F058F9200040306D
:100E000000F054F92000603000F050F980234022B7
:100E1000E25000220433E25010BDC04600230360BC
:100E200041608360C360036103758361037770472A
:100E300070B5040000680D00002805D00368DB6968
:100E40009847002804D1206800232560237770BDCF
:100E5000206803689B699847F5E7C04610B5040011
:100E60000068002805D00368DB699847002809D18D
:100E700020680023A360E360236123752377A361C7
:100E8000236010BD206803689B699847F0E7C0465F
:100E90008368D817C01AC00F7047C046007F7047DC
:100EA000006943425841C0B27047C04600230377EF
:100EB00083618368002B02DDC823DB008360036944
:100EC0004B2B01DC013303617047C04600230377DD
:100ED00083618368002B02DDC823DB008360036924
:100EE000002B01DD013B03617047C0468368002B86
:100EF00002DDC823DB0083607047C046002310B5C5
:100F0000040003778361C3600068002825D0A368CC
:100F1000002B22D10368DB699847002805D120689F
:100F200003685B699847002817D0C8232068DB0056
:100F3000A360002811D00368DB69984700280CD013
:100F4000236920681901E368C918CB0059180B01FF
:100F5000591A036849009B68984710BD836870B5AB
:100F60000400002B2ADDC26881690132C26086203C
:100F70004D1E4000854222D9012121770021A16127
:100F80000F2A00DDE1600122013B2275A360206889
:100F9000002B1FDD002811D00368DB69984700286B
:100FA0000CD0236920681901E368C918CB005918CF
:100FB0000B01591A036849009B68984770BD207F50
:100FC00000281AD10329D7D00D480AF07BFCE2682B
:100FD000A368D1E7002808D00368DB699847002898
:100FE00003D0206803689B6998470023A360E360EF
:100FF000236123752377A361E0E700232377DDE7EF
:10100000E0FA011082680300002A02DDC822D20043
:1010100082601A7DD868002A03D080221043002203
:101020001A757047836810B50400002B02DDC823D1
:10103000DB0083602068002804D00368DB699847E0
:10104000002801D1002010BD0E23A169FF33994271
:10105000F8DC20684A1C0368DB68A2619847FF231C
:101060001840F0E7836870B504000D00002B02DD26
:10107000C823DB0083602068002810D00368DB6988
:10108000984700280BD00E23A269FF339A4206DC52
:101090002068511C03681B69A1612900984770BD35
:1010A0004368014AD05C7047D8FA011010B50400BB
:1010B0000068002808D00368DB699847002803D03F
:1010C000206803689B6998470023A360E36023615D
:1010D00023752377A36110BD80687047EA2300223F
:1010E0009B00C150014BC2547047C046A60300008C
:1010F000EB239B00C05C7047174B70B5083303604F
:10110000EB239B00C35C0400002B0FD12300206A5B
:101110002833984201D00AF039F92300A06810332F
:10112000984201D00AF032F9200070BD0B480AF055
:10113000E5FA2000383010F053FB051E04D1EB23F4
:1011400000229B00E254E1E712F0AAFE2A0001000F
:1011500003480AF0B7FBF2E714FC0110ACFB0110E6
:10116000B8FB01101A4B70B508330360EB239B00EA
:10117000C35C0400002B14D12300206A283398425A
:1011800001D00AF003F92300A0681033984201D07F
:101190000AF0FCF8EC21200089000AF0FBF820009E
:1011A00070BD0C480AF0AAFA2000383010F018FB85
:1011B000051E04D1EB2300229B00E254DCE712F071
:1011C0006FFE2A00010004480AF07CFBF2E7C046EB
:1011D00014FC0110ACFB0110B8FB0110EB2370B53F
:1011E0009B00C35C0400002B00D170BD0A480AF0CC
:1011F00085FA2000383010F0F3FA051E04D1EB23F5
:1012000000229B00E254F0E712F04AFE2A0001009F
:1012100002480AF057FBF2E7ACFB0110B8FB0110E3
:1012200070B505000E1E19D0541A0F2C09D800688D
:10123000012C18D10B780370286800236C600355CB
:1012400070BD002C12DB601C0AF09CF8AC602860BA
:10125000220031000AF090F82868EEE7002A08D151
:1012600000680024E9E7002CE7D0F1E7024819F014
:1012700091FE024819F076FEFCFB0110D0FB011034
:10128000F0B583180400A6208000844663441970DA
:101290000E23FF3383B09A4201D003B0F0BDEA239E
:1012A00025009B00E2583835D317280010F0D2FAF9
:1012B000061E18D023683A4A1B6A93425BD1A7687E
:1012C000300012F0EDFD33000200390035480AF01D
:1012D000F9FA2368344A9B69934242D1EB239B007D
:1012E000E35C002B30D1A6218722890001AB52009C
:1012F000611828000FF030FF061ECED02368284A60
:101300001B6A934233D1A768300012F0C9FD330045
:101310000200390025480AF0D5FA2368224A9B6961
:10132000934221D1EB239B00E35C002BB5D02048F6
:101330000AF0E4F9280010F053FA051E1FD1EB2340
:1013400000229B00E254A8E719480AF0D7F92800C8
:1013500010F046FA061E1AD1EB2300229B00E2543D
:10136000C1E720009847BEE72000984795E7200096
:1013700098470700C8E7200098470700A0E712F049
:101380008FFD2A0001000B480AF09CFAD7E712F003
:1013900087FD3200010007480AF094FADCE7C046F6
:1013A000D91000104CFB0110DD11001068FB01107A
:1013B000ACFB0110B8FB0110F0B5C6469846314BA6
:1013C0000600083300B503604346103604001700DA
:1013D00041608660002B34D040461CF009FB0500BC
:1013E0000F2834D8012822D143461B7823740023C8
:1013F000E5607355260028362662002F21D038007C
:101400001CF0F6FA05000F282ED801281CD128233D
:101410003A78E25400231C4A65627355A3540232A1
:10142000A35004322000A35404BC9046F0BD002811
:1014300013D10023E5607355260028362662002F5D
:10144000DDD1124819F08EFD0028E3D012E0013002
:1014500009F098FF0600A060256130002A0041468F
:1014600009F08AFFA668C2E7013009F08BFF060089
:101470002062A56230002A00390009F07DFF266A4B
:10148000C8E7C04614FC0110A6030000D0FB011001
:10149000EA23F0B505009B00C258383583B004003C
:1014A000D317280010F0D6F9061E18D023683C4A3E
:1014B0001B6A934256D1A768300012F0F1FC33004A
:1014C0000200390037480AF0FDF92368364A9B6963
:1014D00093424FD1EB239B00E35C002B28D1A62144
:1014E0008722890001AB5200611828000FF0A4FC8C
:1014F000061E18D023682A4A1B6A934236D1A76871
:10150000300012F0CDFC33000200390027480AF009
:10151000D9F92368244A9B6993422ED1EB239B007F
:10152000E35C002B11D10122214BE25403B0F0BD4A
:1015300020480AF0E3F8280010F052F9061E1FD1E7
:10154000EB2300229B00E254C9E71A480AF0D6F8C0
:10155000280010F045F9051E1AD1EB2300229B004C
:10156000E254E0E7200098470700A5E720009847ED
:101570000700C5E720009847B1E720009847D2E769
:1015800012F08EFC320001000B480AF09BF9D7E7FD
:1015900012F086FC2A00010007480AF093F9DCE704
:1015A000D91000104CFB0110DD11001004FB0110DC
:1015B000A6030000ACFB0110B8FB011070B5084B8E
:1015C0000400C35C0D00002B06D0A6239B009C46A4
:1015D00064196444207870BDFFF75AFFF5E7C046F0
:1015E000A6030000F0B557464E464546DE46E0B538
:1015F000436805689846D61808239946814483B005
:1016000004008A461700A94518D083689E4218D85E
:10161000002F08D028004044012F4AD03A005146FC
:1016200009F0AAFE2568002320006660AB5503B0D0
:101630003CBC90469946A246AB46F0BD0F230F2E08
:10164000E6D9002E42DB5B0001939E421FD3701C43
:10165000019609F097FE43460500002B1FD1236831
:101660009B465346002B09D0002F07D04346E8186D
:10167000012F27D03A00514609F07EFED94502D00D
:10168000584609F083FE019B2560A360CBE7581CF8
:10169000002BDEDA80200F4B00060193D9E7236888
:1016A0009B464346012B09D04246594609F064FE49
:1016B000D7E753461B7803702568B4E75B461B7871
:1016C0000370CEE753461B780370D7E7024819F042
:1016D00061FCC046FFFFFF7FFCFB011070B50500F9
:1016E0004068CEB04368002B35D0696A2B6A8C46BF
:1016F00063441A0002AE296A68460096FFF790FD1F
:101700001B4B019A9A422FD001221A496846FFF7D3
:1017100069FF2B68184A1B6A934221D1AC682000EC
:101720001CF066F9124B019902005B1A83421BD32D
:1017300021006846FFF756FF06A9009810F076FED4
:10174000444244410098E4B2B04201D009F01EFE88
:1017500020004EB070BD12F01DFE041EC5D1F7E78B
:10176000280098470400DAE7044819F013FCC04643
:10177000FFFFFF7FD0010210D910001094FB011071
:10178000F0B5416A036A8C4687B063441A00016A67
:10179000040002AE68460096FFF742FD2D4B019A09
:1017A0009A4253D001222C496846FFF71BFF236859
:1017B0002A4A1B6A934245D1A56828001CF018F9F3
:1017C000244B019902005B1A83423FD329006846EB
:1017D000FFF708FF009922480AF074F8EB239B00FA
:1017E000E55C002D16D160684368002B25D02000F1
:1017F0000322009938300EF02BFDF7230700034039
:1018000010D0009C12F04CFB3B0002002100154858
:101810000AF058F80098B04201D009F0B7FD28004E
:1018200007B0F0BDEA229200A3500F4A0125A3544D
:10183000EB2301229B00E254ECE712F0ABFD002801
:10184000D5D1E7E7200098470500B6E7074819F02B
:10185000A1FBC046FFFFFF7FD0010210D91000108E
:1018600020FB011030FB0110A603000094FB0110C7
:10187000F0B54F464646D646EB23C0B59B00534CC9
:10188000C35CA54407009846002B00D075E0406873
:101890004368002B6CD0796A04AB8C46029399465E
:1018A0003B6A396A63441A0002A8FFF7B9FC484B47
:1018B000039A9A4200D185E00122464902A8FFF727
:1018C00091FE3B68444A1B6A9246934262D1BC68CF
:1018D00020001CF08DF83E4B039902005B1A8342F6
:1018E00000D26FE0210002A8FFF77CFE02993B487E
:1018F00009F0E8FF0722029908A80EF0A9FC041ECF
:101900003ED1A62387229A249B00FE185200002174
:10191000300009F02BFDE40002E0013C002C41D036
:10192000872201AB5200310008A80FF015FC051EFC
:10193000F3D03B681B6A534530D1BC68280012F0D5
:10194000AFFA2B0002002100254809F0BBFF08A8D0
:101950000FF046FF0298484501D009F017FD4046B8
:10196000A0239B009D441CBC90469946A246F0BD16
:1019700012F010FD002800D08DE700239846EEE716
:10198000029D12F08DFA230002002900154809F08B
:1019900099FFDFE738009847040099E73800984737
:1019A0000400CBE708A80FF01BFF041E02D101239F
:1019B0009846CFE712F074FA220001000A4809F0B5
:1019C00081FFC7E7094819F0E5FAC04680FDFFFF2F
:1019D000FFFFFF7FD0010210D910001084FB01101F
:1019E00068FB011030FB0110B8FB011094FB0110E3
:1019F00000230360436003727047C046F8B58D0052
:101A00004519060028680F001400002803D0036859
:101A100000219B6998472C60002C11D01023BB40FB
:101A2000317A200019404B1E99412368C9B29B6945
:101A30009847317A23684906C90FDB692000984727
:101A4000F8BDC046F8B54746CE46012380B5994655
:101A5000070001330400FC26984608372568002D4E
:101A60000FD02B6828009B689847002801D0434678
:101A70001E432B682800DB689847002801D04B469E
:101A80001E430434A742E9D1F0B20CBC90469946FB
:101A9000F8BDC046F8B505000F00040008352668FB
:101AA000002E0AD033683000DB689847002804D045
:101AB000336839001B69300098470434AC42EED1DA
:101AC000F8BDC04670B504680500002C05D0236839
:101AD00020009B68984700280AD16C68002C05D02C
:101AE000236820009B689847002801D1002070BD22
:101AF000236820005B699847F9E7C04670B500236A
:101B000006000400037208362568002D09D02B68F2
:101B100000219B69280098472B680121DB69280078
:101B200098470434B442EFD170BDC046F0B5C64604
:101B30004B06DB0F06000F000024984600B5A300FB
:101B4000F558002D15D010214022A140337A0A43C8
:101B50007B401A420DD039404B1E99412B68C9B2C7
:101B60009B69280098474346D9B22B682800DB6957
:101B70009847012C03D1377204BC9046F0BD012474
:101B8000DDE7C0467047C046002070477047C0463A
:101B900000207047002070477047C0460020704703
:101BA0007047C04610B504000C2109F0F3FB20007B
:101BB00010BDC046406810B5002804D00368034A31
:101BC000DB68934200D110BD9847FCE78D1B0010E5
:101BD000436810B5002B06D01A68054992680020AA
:101BE0008A4202D110BD0020FCE718009047F9E7B7
:101BF000891B001010B504004068002802D0237A29
:101C0000002B01D1002010BD0368074A1B6A9342D4
:101C1000F8D098470028F5D06068044A03681B692B
:101C20009342EFD09847EEE79D1B0010911B0010E8
:101C3000436810B5002B09D0007A002805D01A6837
:101C40000549126A00208A4202D110BD0020FCE73B
:101C500018009047F9E7C0469D1B001010B50172AF
:101C60004068002806D00368002904D05B69064A52
:101C7000934206D110BDDB69044A9342FAD09847DB
:101C8000F8E79847F6E7C046951B0010991B00102F
:101C9000034B083303600023436003727047C04660
:101CA00040FC011070B5446805000E00002C04D003
:101CB0002368054ADB69934202D16E60200070BD43
:101CC00020009847F9E7C046991B001070B544689A
:101CD0000500002C06D02368054ADB69934203D136
:101CE00000236B60200070BD20009847F8E7C046D5
:101CF000991B0010002070470020704710B50400A9
:101D0000054B08330360230040680C33984201D030
:101D100009F03CFB200010BD68FC011010B5040068
:101D2000074B08330360230040680C33984201D00E
:101D300009F02CFB20001C2109F02CFB200010BD19
:101D400068FC0110F8B50600144B0C36083304008B
:101D50000F1E036046601ED008001BF049FE050000
:101D60000F280BD8012806D13B7823730023A560E8
:101D700020007355F8BD0028F8D005E0013009F0C7
:101D800001FB06006060E56030002A00390009F0C0
:101D9000F3FA6668EAE7024819F0E4F868FC011013
:101DA000D0FB01104068704710B50400054B0833A4
:101DB0000360230040680C33984201D009F0E6FA32
:101DC000200010BD98FC011010B50400074B08332B
:101DD0000360230040680C33984201D009F0D6FA22
:101DE00020001C2109F0D6FA200010BD98FC01103B
:101DF000F8B50600144B0C36083304000F1E0360C0
:101E000046601ED008001BF0F3FD05000F280BD81C
:101E1000012806D13B7823730023A5602000735569
:101E2000F8BD0028F8D005E0013009F0ABFA060053
:101E30006060E56030002A00390009F09DFA6668AC
:101E4000EAE7024819F08EF898FC0110D0FB011067
:101E500040687047184B70B508330360A6239B0099
:101E6000C35C0400002B10D12300206A2833984261
:101E700001D009F08BFA2000FFF796FFA82120007F
:101E8000890009F087FA200070BD0C4809F036FC83
:101E9000200038300FF0A4FC051E04D1A623002238
:101EA0009B00E254E0E711F0FBFF2A000100044828
:101EB00009F008FDF2E7C046F0FC0110E0FC01105B
:101EC000B8FB0110A62370B59B00C35C0400002B77
:101ED00000D170BD0A4809F011FC200038300FF025
:101EE0007FFC051E04D1A62300229B00E254F0E7EC
:101EF00011F0D6FF2A000100024809F0E3FCF2E7E6
:101F0000E0FC0110B8FB0110154B70B508330360FD
:101F1000A6239B00C35C0400002B0BD12300206A86
:101F20002833984201D009F031FA2000FFF73CFF36
:101F3000200070BD0B4809F0E1FB200038300FF0A5
:101F40004FFC051E04D1A62300229B00E254E5E7C6
:101F500011F0A6FF2A000100034809F0B3FCF2E7E4
:101F6000F0FC0110E0FC0110B8FB0110F0B5A62553
:101F7000AD00435D83B00400002B02D1002003B00C
:101F8000F0BD07000023694638370193012201ABF9
:101F9000033138000EF050FF019B0600002B04D0E7
:101FA00000281BD16B46D878E9E7184809F0A6FB52
:101FB0002368174A1B6993421CD1635D002BDDD057
:101FC000144809F09BFB38000FF00AFC051E14D1E1
:101FD000A62300229B00E2540020D0E711F060FF0E
:101FE000320001000C4809F06DFC2368084A1B69A7
:101FF0009342E2D020009847C0E711F051FF2A0039
:102000000100064809F05EFCE2E7C046C4FC01108E
:10201000C51E0010E0FC0110C8FC0110B8FB011047
:10202000F8B5040026000D0019001700FFF7E0FEC8
:10203000164B283608332360E5612662002F22D034
:1020400038001BF0D5FC05000F280FD801280AD155
:1020500028233A78E254A6220023920065622000E9
:102060007355A354F8BD0028F5D005E0013009F000
:1020700089F906002062A56230002A00390009F0C3
:102080007BF9266AE7E7024818F06CFFF0FC0110C4
:10209000D0FB0110F0B587B0076A02AE04000096CD
:1020A000456A002F5DD00F2D48D8012D64D16A46B6
:1020B0003B7813723200002301955355019B344D38
:1020C000AB425ED0012233496846FFF78BFA20000D
:1020D000FFF7BEFE07001BF08BFC019BED1A85424B
:1020E0004FD3020039006846FFF77CFA00992A486E
:1020F00009F0E8FBA6239B00E55C002D16D1E06902
:102100004368002B33D020000122009938300EF0B4
:102110009FF8F723070018421DD0009C11F0C0FE65
:102120003B00020021001D4809F0CCFB0098B042A2
:1021300001D009F02BF9280007B0F0BD002D23DBFA
:10214000681C09F01FF9029500902A00390009F077
:1021500013F9009AAFE7A62301229B00E254012560
:10216000E4E73200002DA6D00D4818F0FBFE12F077
:1021700011F90028C7D1D9E73200002D9BD03000DB
:10218000E3E7084818F006FF074818F003FFC046C9
:10219000FFFFFF7FD0010210B4FC011030FB0110E3
:1021A000D0FB011094FB0110FCFB0110014BC05C43
:1021B0007047C0469A020000014BC05C7047C046A1
:1021C00099020000A6239B00C05C7047054B0200EB
:1021D000C05C002803D00120013BD35C5840024B77
:1021E000D0547047990200009A0200000022164B5A
:1021F00070B508330360154B0400C254023BC35C46
:10220000002B0BD12300206A2833984201D009F01B
:10221000BDF82000FFF772FD200070BD0C4809F0EA
:102220006DFA200038300FF0DBFA051E04D1A6232A
:1022300000229B00E254E5E711F032FE2A00010083
:10224000044809F03FFBF2E738FD01109A02000054
:102250002CFD0110B8FB01100022194B70B508339A
:102260000360184B0400C254023BC35C002B10D126
:102270002300206A2833984201D009F087F8200013
:10228000FFF73CFDA8212000890009F083F8200019
:1022900070BD0D4809F032FA200038300FF0A0FA76
:1022A000051E04D1A62300229B00E254E0E711F0B2
:1022B000F7FD2A000100054809F004FBF2E7C046DB
:1022C00038FD01109A0200002CFD0110B8FB01102E
:1022D000002270B50E4B0400C254023BC35C002BBD
:1022E00000D170BD0B4809F009FA200038300FF01A
:1022F00077FA051E04D1A62300229B00E254F0E7E2
:1023000011F0CEFD2A000100034809F0DBFAF2E7E4
:102310009A0200002CFD0110B8FB011070B50500F9
:102320000E1E19D0541A0F2C09D80068012C18D190
:102330000B780370286800236C60035570BD002C77
:1023400012DB601C09F01EF8AC602860220031002E
:1023500009F012F82868EEE7002A08D10068002486
:10236000E9E7002CE7D0F1E7024818F013FE024835
:1023700018F0F8FDFCFB0110D0FB0110F0B5CE46C3
:10238000474680B585B06B46A6250400D971AD00DF
:10239000D81D635D002B03D0214EA35D002B04D11B
:1023A00005B00CBC90469946F0BD38239846A04431
:1023B000010003AB012240460EF0CEFE071EEFD017
:1023C0002000FFF7EFFC8146380011F069FD3B006B
:1023D00002004946134809F075FA2368124ADB697E
:1023E000934211D10023A355635D002BD8D00F4831
:1023F00009F084F940460FF0F3F9051E07D1A62332
:1024000000229B00E254CBE720009847C8E711F078
:1024100047FD2A000100064809F054FAEFE7C046DC
:102420009A02000068FB0110D12200102CFD01105F
:10243000B8FB0110F0B5D6464F464646A625C0B5B6
:10244000AD00435D82B00400002B03D02B4FC65D6E
:10245000002E06D0002002B01CBC90469946A24631
:10246000F0BD38239A466946824401AB012203310C
:10247000504601960EF0E0FC019B81469846002BE9
:1024800004D0002810D16B46D878E4E71C4809F046
:1024900035F923681B4ADB69934222D14346E35551
:1024A000635D002BD6D00FE011F0FAFC4A46010024
:1024B000154809F007FA2368124ADB69934210D1E4
:1024C000E655635D002BC5D0104809F017F950465A
:1024D0000FF086F9051E08D1A62300229B00E254C6
:1024E000B8E7200098470020B5E711F0D9FC2A0092
:1024F0000100074809F0E6F9EEE7C0469A0200003D
:10250000C4FC0110D1220010C8FC01102CFD0110E8
:10251000B8FB0110F0B50400C64626000D0000B55A
:10252000170006AA127819009046FFF70BFC1A4B09
:10253000283608332360E5612662002F29D0380051
:102540001BF056FA05000F2816D8012811D12823B0
:102550003A78E254A6220023414692006562735500
:10256000A3540E4A2000A1540D4AA35404BC904623
:10257000F0BD0028EED005E0013008F003FF0600B2
:102580002062A56230002A00390008F0F5FE266AB4
:10259000E0E7044818F0E6FC38FD0110990200005D
:1025A0009A020000D0FB011070B5416A036A8C46A4
:1025B000CEB063441A00016A050002AE6846009678
:1025C000154CFFF7ABFE019BA34222D00122134919
:1025D0006846FFF707F82800FFF7E4FB05001BF04B
:1025E00007FA019B0200E41A844212D329006846CC
:1025F000FEF7F8FF06A900980FF018FF4442444187
:102600000098E4B2B04201D008F0C0FE20004EB005
:1026100070BD034818F0BEFCFFFFFF7FD001021021
:1026200094FB0110F0B5416A036A8C4687B063449D
:102630001A00016A040002AE684600962B4DFFF7AF
:102640006DFE019BAB424DD0012229496846FEF741
:10265000C9FF2000FFF7A6FB07001BF0C9F9019B8B
:102660000200ED1A85423DD339006846FEF7BAFFF5
:102670000099204809F026F9A6239B00E55C002D6F
:1026800019D1E0694368002B27D01B4B2000E25C86
:102690000099531E9A41534231221A400132383078
:1026A0000DF0D6FDF723070018420CD1A623012216
:1026B00001259B00E2540098B04201D008F066FE6C
:1026C000280007B0F0BD009C11F0EAFB3B000200BF
:1026D00021000A4809F0F6F8EDE711F05BFE00284A
:1026E000D3D1E8E7064818F055FCC046FFFFFF7F4E
:1026F000D00102100CFD01109A02000030FB011005
:1027000094FB0110A623F0B59B00314CC55CA54499
:102710000400002D4FD1C0694368002B47D0616A87
:10272000236A8C4663441A0002AF216A6846009708
:10273000284EFFF7F3FD019BB34246D00122264904
:102740006846FEF74FFF2000FFF72CFB04001BF04C
:102750004FF9019B0200F61A864236D321006846E3
:10276000FEF740FF00991D4809F0ACF807220099D8
:1027700006A80DF06DFD041E0FD106A80FF030F86D
:10278000041E1AD101250098B84201D008F0FEFDC0
:1027900028009F239B009D44F0BD009E11F080FB0C
:1027A0002300020031000E4809F08CF8EBE711F02D
:1027B000F1FD0028B3D10025EAE711F071FB2200FA
:1027C0000100084809F07EF8DDE7074818F0E2FB51
:1027D00084FDFFFFFFFFFF7FD00102101CFD0110F1
:1027E00030FB0110B8FB011094FB011010B5124B27
:1027F00004000360036E002B03D058300322010055
:102800009847236D002B04D020004830032201009C
:102810009847236C002B04D020003830032201009D
:102820009847236B002B04D020002830032201009E
:102830009847200010BDC04670FD0110012A00D14C
:10284000016000207047C046012A05D0022A01D14C
:102850000B680360002070470160FBE7012A00D18C
:10286000016000207047C046012A05D0022A01D12C
:102870000B680360002070470160FBE7012A00D16C
:10288000016000207047C046012A05D0022A01D10C
:102890000B680360002070470160FBE7012A05D048
:1028A000022A01D10B680360002070470160FBE73A
:1028B000012A05D0022A01D10B680360002070476D
:1028C0000160FBE7012A05D0022A01D10B680360F1
:1028D000002070470160FBE7012A05D0022A01D1E0
:1028E0000B680360002070470160FBE7012A05D0F8
:1028F000022A01D10B680360002070470160FBE7EA
:10290000012A05D0022A01D10B680360002070471C
:102910000160FBE7012A05D0022A01D10B680360A0
:10292000002070470160FBE7012A00D10160002010
:102930007047C046012A05D0022A01D10B68036006
:10294000002070470160FBE7012A05D0022A01D16F
:102950000B680360002070470160FBE7012A05D087
:10296000022A01D10CC90CC0002070470160FBE7AE
:10297000012A05D0022A01D10CC90CC000207047E1
:102980000160FBE7012A05D0022A01D10CC90CC065
:10299000002070470160FBE7012A00D101600020A0
:1029A0007047C046012A05D0022A01D10B68036096
:1029B000002070470160FBE7012A00D10160002080
:1029C0007047C046012A05D0022A01D10B68036076
:1029D000002070470160FBE7012A05D0022A01D1DF
:1029E0000CC90CC0002070470160FBE7012A05D02C
:1029F000022A01D10B680360002070470160FBE7E9
:102A0000012A05D0022A01D10B680360002070471B
:102A10000160FBE7012A00D1016000207047C04639
:102A2000012A05D0022A01D10B68036000207047FB
:102A30000160FBE7012A00D1016000207047C04619
:102A4000012A05D0022A01D10B68036000207047DB
:102A50000160FBE7012A05D0022A01D10CC90CC094
:102A6000002070470160FBE7012A05D0022A01D14E
:102A70000CC90CC0002070470160FBE7012A05D09B
:102A8000022A01D10B680360002070470160FBE758
:102A9000012A05D0022A01D10B680360002070478B
:102AA0000160FBE7012A05D0022A01D10B6803600F
:102AB000002070470160FBE7012A05D0022A01D1FE
:102AC0000CC90CC0002070470160FBE7012A05D04B
:102AD000022A01D10CC90CC0002070470160FBE73D
:102AE000012A05D0022A01D10CC90CC00020704770
:102AF0000160FBE7012A00D1016000207047C04659
:102B0000012A05D0022A01D10B680360002070471A
:102B10000160FBE7012A00D1016000207047C04638
:102B2000012A05D0022A01D10B68036000207047FA
:102B30000160FBE7012A05D0022A01D10CC90CC0B3
:102B4000002070470160FBE7012A05D0022A01D16D
:102B50000B680360002070470160FBE7012A05D085
:102B6000022A01D10B680360002070470160FBE777
:102B7000012A00D1016000207047C046012A05D01B
:102B8000022A01D10B680360002070470160FBE757
:102B9000012A05D0022A01D10B680360002070478A
:102BA0000160FBE7012A05D0022A01D10CC90CC043
:102BB000002070470160FBE7012A05D0022A01D1FD
:102BC0000B680360002070470160FBE7012A00D119
:102BD000016000207047C046012A05D0022A01D1B9
:102BE0000B680360002070470160FBE7012A05D0F5
:102BF000022A01D10B680360002070470160FBE7E7
:102C0000012A05D0022A01D10B6803600020704719
:102C10000160FBE7012A05D0022A01D10B6803609D
:102C2000002070470160FBE7012A05D0022A01D18C
:102C30000B680360002070470160FBE7012A05D0A4
:102C4000022A01D10B680360002070470160FBE796
:102C5000012A05D0022A01D10B68036000207047C9
:102C60000160FBE7012A05D0022A01D10B6803604D
:102C7000002070470160FBE7012A05D0022A01D13C
:102C80000B680360002070470160FBE7012A00D158
:102C9000016000207047C046012A05D0022A01D1F8
:102CA0000B680360002070470160FBE7012A05D034
:102CB000022A01D10B680360002070470160FBE726
:102CC000012A05D0022A01D10B6803600020704759
:102CD0000160FBE7012A05D0022A01D10CC90CC012
:102CE000002070470160FBE7012A05D0022A01D1CC
:102CF0000B680360002070470160FBE7012A05D0E4
:102D0000022A01D10B680360002070470160FBE7D5
:102D1000012A00D1016000207047C046012A00D17D
:102D2000016000207047C046012A05D0022A01D167
:102D30000CC90CC0002070470160FBE7012A05D0D8
:102D4000022A01D10CC90CC0002070470160FBE7CA
:102D500010B5040000680121A83017F04FFCE368AB
:102D6000002B02D0201D2369984710BD10B50068C4
:102D7000FFF7EEFF10BDC046030000B51A68064B12
:102D800083B008000192009300220123002116F075
:102D900095FA03B000BDC046B4FE011010B5096835
:102DA0000068FFF7E9FF10BD030000B51A68064B85
:102DB00083B008000192009300220123002116F045
:102DC0007DFA03B000BDC0469CFE011010B5096835
:102DD0000068FFF7E9FF10BD030000B51A68064B55
:102DE00083B008000192009300220123002116F015
:102DF00065FA03B000BDC046B4FE011010B5096805
:102E00000068FFF7E9FF10BD030000B51A68064B24
:102E100083B008000192009300220123002116F0E4
:102E20004DFA03B000BDC0469CFE011010B5096804
:102E30000068FFF7E9FF10BD10B5040000680368E3
:102E4000DB699847206803685B69984710BDC046F6
:102E500010B5FFF7F1FF10BD10B503689B699847E7
:102E600010BDC04610B50068FFF7F6FF10BDC046A4
:102E700000B5054B83B0009300220023002116F01B
:102E80008DF903B000BDC046E0FF011010B5086821
:102E9000FFF7EEFF10BDC04600B5054B83B00093B1
:102EA00000220023002116F079F903B000BDC046CE
:102EB0006400021010B50868FFF7EEFF10BDC046B1
:102EC00000B5054B83B0009300220023002116F0CB
:102ED00065F903B000BDC0461801021010B50868BE
:102EE000FFF7EEFF10BDC04600B5054B83B0009361
:102EF00000220023002116F051F903B000BDC046A6
:102F00000000021010B50868FFF7EEFF10BDC046C4
:102F100000B5054B83B0009300220023002116F07A
:102F20003DF903B000BDC0461000021010B508689E
:102F3000FFF7EEFF10BDC04600B5054B83B0009310
:102F400000220023002116F029F903B000BDC0467D
:102F50003000021010B50868FFF7EEFF10BDC04644
:102F600010B50868FFF7C0FF10BDC04600B5054B9F
:102F700083B0009300220023002116F00FF903B064
:102F800000BDC0468C00021010B50868FFF7EEFFC8
:102F900010BDC04600B5054B83B00093002200234E
:102FA000002116F0FBF803B000BDC0469C000210E3
:102FB00010B50868FFF7EEFF10BDC04600B5054B21
:102FC00083B0009300220023002116F0E7F803B03D
:102FD00000BDC046BC00021010B50868FFF7EEFF48
:102FE00010BDC04610B50868FFF7C0FF10BDC04651
:102FF00000B5054B83B0009300220023002116F09A
:10300000CDF803B000BDC0462401021010B5086819
:10301000FFF7EEFF10BDC04600B5054B83B000932F
:1030200000220023002116F0B9F803B000BDC0460D
:10303000C8FE011010B50868FFF7EEFF10BDC046CE
:10304000030010B501201B2900D010BD18681A39E3
:10305000A83017F0D3FA01235840C0B2F5E7C046B4
:1030600010B51978FFF7ECFF10BDC04600B5054B51
:1030700083B0009300220023002116F01FF903B053
:1030800000BDC0466801021010B50868FFF7EEFFEA
:1030900010BDC04610B582B00C00FEF7D9FE054B3E
:1030A00001900093002200230021200016F006F971
:1030B00002B010BD3401021010B509680068FFF7B6
:1030C000E9FF10BD10B504000368D86EFDF7AEFB34
:1030D0002068F930FF3016F05DFA10BD10B5FFF72B
:1030E000F1FF10BD10B5C06EFDF754FB10BDC0461A
:1030F00010B50068FFF7F6FF10BDC04670B5036855
:103100000E0084B01B6A1400984733680500186FDE
:10311000FDF7C6FF054B02900093019500230022A6
:103120000021200016F0CAF804B070BD440002105F
:103130000A68010010B501C9FFF7E0FF10BDC046E5
:1031400010B50C00006FFDF789FE2068002802D042
:1031500003685B68984710BD010010B501C9FFF70F
:10316000EFFF10BD70B50D000400582008F00AF9FB
:1031700029001A31060017F01BF9F9231B01310051
:10318000E01816F02BFF70BD10B509680068FFF756
:10319000E9FF10BD10B582B00C00FEF703FE054B31
:1031A00001900093002200230021200016F086F8F1
:1031B00002B010BDCC00021010B509680068FFF71E
:1031C000E9FF10BD10B582B00C00FEF7EBFD054B1A
:1031D00001900093002200230021200016F06EF8D9
:1031E00002B010BDF800021010B509680068FFF7C2
:1031F000E9FF10BD10B582B00C00FEF7D3FD054B02
:1032000001900093002200230021200016F056F8C0
:1032100002B010BDE000021010B509680068FFF7A9
:10322000E9FF10BD10B50C00406FFEF74FFD2068A0
:10323000002802D003685B68984710BD010010B5F4
:1032400001C9FFF7EFFF10BD10B50C00C06EFDF710
:103250004FFB2068002802D003685B68984710BDC8
:10326000010010B501C9FFF7EFFF10BD10B51C4BF1
:1032700084B00022002100930023040015F08EFF8B
:10328000052005F067FA07F088FF07F0ADFF002280
:10329000144B07F08CFB144B029003910093200019
:1032A00000230122002116F009F8104B20000093A2
:1032B00002220023002115F071FF0D4B2000009326
:1032C0001D220023002115F069FF0A4B1D220093E7
:1032D00042210023200015F061FF04B010BDC0465C
:1032E00020FF011080842E413CFF01105CFF011083
:1032F00074FF011084FF011010B50868FFF7B6FFD6
:1033000010BDC04610B50A4B84B0C118094B0A4C19
:103310000393A83001236A46029417F0B5FA029B82
:10332000002B03D0032269466846984704B010BDBD
:103330006C040000B52E00105D28001010B5006868
:10334000FFF7E0FF10BDC04610B50A4B84B0C118AE
:10335000094B0A4C0393A83001236A46029417F0E4
:1033600093FA029B002B03D00322694668469847D4
:1033700004B010BD7C090000DD2E00107D28001077
:1033800010B50068FFF7E0FF10BDC046020010B5A1
:103390000A4B84B0C1180A4B0A4C00920393A83020
:1033A00001236A46029417F06FFA029B002B03D0A8
:1033B000032269466846984704B010BD4C0E0000D1
:1033C000A93700109D28001010B50068FFF7DEFF38
:1033D00010BDC0460022036810B51A678E2200682F
:1033E0000A4B84B012010A4C81180393A8300123C0
:1033F0006A46029417F048FA029B002B03D003227E
:1034000069466846984704B010BDC046052F0010B5
:103410009929001010B5FFF7DDFF10BD8E2310B500
:103420001B01C118094B84B0094C0393A830012338
:103430006A46029417F028FA029B002B03D003225D
:1034400069466846984704B010BDC046612F001019
:10345000352A001010B50068FFF7E0FF10BDC04628
:103460000022036810B55A67DB2200680A4B84B05B
:1034700012010A4C81180393A83001236A46029472
:1034800017F002FA029B002B03D00322694668461C
:10349000984704B010BDC046892F0010F52A0010CF
:1034A00010B5FFF7DDFF10BDDB2310B51B01C11800
:1034B000094B84B0094C0393A83001236A46029457
:1034C00017F0E2F9029B002B03D0032269466846FD
:1034D000984704B010BDC046E52F0010CD2B00105A
:1034E00010B50068FFF7E0FF10BDC046B4230268C6
:1034F000F0B5060010001B010F680D00D1180F4B2E
:1035000085B00F4C00920393A83001236A460197BF
:10351000029417F0B9F9029B002B03D003226946ED
:10352000684698478E2330682968C26E8900521811
:103530005B00D358436705B0F0BDC0469535001019
:10354000CD2A001010B5011DFFF7D0FF10BDC046F9
:103550008E2330B5C06E8C0000195B00C35885B057
:10356000586815004C1C00280DD0FEF71BFC074BBB
:10357000029000930194002300220021280015F0FE
:103580009DFE05B030BD0248F1E7C0467000021054
:10359000E81C021010B50A6841680068FFF7D8FF00
:1035A00010BDC046F0B5C646070000248E2600B503
:1035B0003B688846DB6EA10076005B189B591A3287
:1035C00058681500002807D0FEF7ECFB0100280022
:1035D0001AF0CAF9002819D0012C0AD001243B683E
:1035E000A100DB6E5B189B5958680028ECD1012CB8
:1035F000F4D1434658201E6807F0C4FE0400290099
:1036000016F0D6FE2100300016F0E8FC04BC90460F
:10361000F0BDC04610B50A68011DFFF7C3FF10BD1D
:10362000D6230268F0B506001000DB000F680D001D
:10363000D1180E4B85B00E4C00920393A830012395
:103640006A460197029417F01FF9029B002B03D0E2
:1036500003226946684698473168064BC86E2A6857
:10366000C35852019B180B6705B0F0BDD13600104E
:10367000712900103481010010B5011DFFF7D0FF42
:1036800010BDC04630B50E4BC06E1400C3584A0181
:10369000D0580C4B85B05D5C00280ED003681B6AC7
:1036A0009847094B029000930195002300220021C6
:1036B000200015F003FE05B030BD0448F1E7C04618
:1036C00034810100D8FA0110ECFF0110E81C02104F
:1036D00010B50A6841680068FFF7D4FF10BDC04606
:1036E000F0B5C6461A32070088460024150000B51A
:1036F000114E3B68DB6E9B5918592034002808D0C6
:1037000003681B6A9847010028001AF02DF9002869
:103710000ED0802CEDD1434658201E6807F032FEB3
:103720000400290016F044FE2100300016F056FC7B
:1037300004BC9046F0BDC0463481010010B50A6853
:10374000011DFFF7CDFF10BD2A2310B50124C16E66
:10375000FF33CA5CF9306240FF30CA5415F01AFFDB
:1037600010BDC04610B50068FFF7EEFF10BDC046A3
:10377000962310B5C26E5B00D05882B00C000028B2
:103780000CD0FEF765FB064B01900093002200234E
:103790000021200015F092FD02B010BD0148F2E7B3
:1037A0004C010210E81C021010B509680068FFF710
:1037B000DFFF10BD70B50400022A05D0032A1CD01B
:1037C000012A17D0002070BD14200E6807F0DAFD22
:1037D0003368050003600023C360F368002B07D043
:1037E000311D04300222984733692B61F368EB6086
:1037F0002560E7E70B680360E4E70468002CE1D08C
:10380000E368002B03D0201D0322010098471421F8
:10381000200007F0BFFDD5E7030000B51A6C064B8A
:1038200083B008000192009300220023002115F0CC
:1038300045FD03B000BDC0467C01021010B509680B
:103840000068FFF7E9FF10BDF8B50400EC2023681D
:1038500080000F6C1E6F07F095FD050023680A4A73
:10386000996E3B00FDF7A8FD29003000FDF7E0FA56
:10387000002802D003685B68984720680121A830BF
:1038800016F0BCFEF8BDC046D0FE011010B50968A8
:10389000FFF7DAFF10BDC046030000B51A6C064BF7
:1038A00083B008000192009300220023002115F04C
:1038B00005FD03B000BDC0469801021010B50968AF
:1038C0000068FFF7E9FF10BDF0B5C6460400A82068
:1038D00000B523680A6C82B0800090465E6F07F0E6
:1038E00051FD0127050023680B4A996E4346009756
:1038F000FEF710FE29003000FEF7D4F9002802D0B0
:1039000003685B68984720680121A83016F076FEAE
:1039100002B004BC9046F0BDE4FE011010B5096889
:10392000FFF7D2FF10BDC046F8B50400A8202368F9
:1039300080000F6CDE6E07F025FD050023680A4A43
:10394000996E3B00FEF76CFB29003000FCF786FF08
:10395000002802D003685B68984720680121A830DE
:1039600016F04CFEF8BDC046F8FE011010B509680F
:10397000FFF7DAFF10BDC046F92330B50400006838
:103980001B01C1181B4B8DB01B4D0893A8300123A0
:1039900005AA079516F078FF079B002B03D005A911
:1039A0000322080098472368144A996E05A810F06E
:1039B00085FCF9231B019C462068604416F088FAB8
:1039C0000F4B24680F4A05A801A9039301940492A0
:1039D00010F0A0FC039B002B03D001A903220800D8
:1039E0009847069808AB984201D007F0CFFC0DB07D
:1039F00030BDC0460D3000108D2C0010F8FE0110B7
:103A0000992C00108931001010B5FFF7B5FF10BDDB
:103A1000F8B50600083604000F1E06601ED0080028
:103A200019F0E6FF05000F280BD8012806D13B78D6
:103A300023720023656020007355F8BD0028F8D07C
:103A400005E0013007F09EFC06002060A560300014
:103A50002A00390007F090FC2668EAE7014817F0D1
:103A600081FAC046D0FB011070B505000E1E19D0BA
:103A7000541A0F2C09D80068012C18D10B78037048
:103A8000286800236C60035570BD002C12DB601C9D
:103A900007F078FCAC6028602200310007F06CFC75
:103AA0002868EEE7002A08D100680024E9E7002C26
:103AB000E7D0F1E7024817F06DFA024817F052FA22
:103AC000FCFB0110D0FB011010B51B4B0400036080
:103AD000C36F002B03D07430032201009847A06EFF
:103AE000002801D007F052FC144B2360236E002BFA
:103AF00004D020005830032201009847236D002B8A
:103B000004D020004830032201009847236C002B8A
:103B100004D020003830032201009847236B002B8B
:103B200004D020002830032201009847200094216F
:103B300007F030FC200010BD80FD011070FD011069
:103B400010B5144B04000360036E002B03D05830F3
:103B5000032201009847236D002B04D02000483039
:103B6000032201009847236C002B04D0200038303A
:103B7000032201009847236B002B04D0200028303B
:103B80000322010098472000682107F003FC200071
:103B900010BDC04670FD0110F8B5484B484F03609A
:103BA000E8230400C7504130FF308368002B02D067
:103BB00003220100984720003130FF308368002B3A
:103BC00002D003220100984720002130FF30836893
:103BD000002B02D003220100984720001130FF3053
:103BE0008368002B02D00322010098478023200025
:103BF000E750D8308368002B02D003220100984799
:103C00002000C8308368002B02D0032201009847AF
:103C10002000B8308368002B02D0032201009847AF
:103C20002000A8308368002B02D0032201009847AF
:103C3000656FA66FB5420AD0AB68002B39D029005A
:103C40002800032210359847B542F5D1666F002E43
:103C500002D0300007F09AFBA06E002801D007F0D8
:103C600095FB236E2760002B04D0200058300322E0
:103C700001009847236D002B04D020004830032218
:103C800001009847236C002B04D020003830032219
:103C900001009847236B002B04D02000283003221A
:103CA00001009847A8212000490007F073FB20007D
:103CB000F8BD1035AE42BFD1C8E7C04690FD011037
:103CC00070FD011010B51C4B040003608C3083683C
:103CD000002B02D00322010098472300A06E70330E
:103CE000984201D007F052FB144B2360236E002B47
:103CF00004D020005830032201009847236D002B88
:103D000004D020004830032201009847236C002B88
:103D100004D020003830032201009847236B002B89
:103D200004D02000283003220100984720009C2165
:103D300007F030FB200010BDA0FD011070FD011048
:103D4000F8B5454B454F0360E8230400C7504130A8
:103D5000FF308368002B02D0032201009847200027
:103D60003130FF308368002B02D0032201009847D6
:103D700020002130FF308368002B02D00322010095
:103D8000984720001130FF308368002B02D00322B7
:103D90000100984780232000E750D8308368002B2B
:103DA00002D00322010098472000C8308368002B0E
:103DB00002D00322010098472000B8308368002B0E
:103DC00002D00322010098472000A8308368002B0E
:103DD00002D0032201009847656FA66FB5420AD052
:103DE000AB68002B34D029002800032210359847F7
:103DF000B542F5D1666F002E02D0300007F0C6FA4A
:103E0000A06E002801D007F0C1FA236E2760002BB6
:103E100004D020005830032201009847236D002B66
:103E200004D020004830032201009847236C002B67
:103E300004D020003830032201009847236B002B68
:103E400004D0200028300322010098472000F8BD4C
:103E50001035AE42C4D1CDE790FD011070FD0110C8
:103E600010B51A4B040003608C308368002B02D01D
:103E70000322010098472300A06E7033984201D0BE
:103E800007F084FA124B2360236E002B04D020002D
:103E90005830032201009847236D002B04D02000E6
:103EA0004830032201009847236C002B04D02000E7
:103EB0003830032201009847236B002B04D02000E8
:103EC0002830032201009847200010BDA0FD0110FA
:103ED00070FD011010B5194B04000360C36F002B77
:103EE00003D07430032201009847A06E002801D04F
:103EF00007F04CFA124B2360236E002B04D02000F5
:103F00005830032201009847236D002B04D0200075
:103F10004830032201009847236C002B04D0200076
:103F20003830032201009847236B002B04D0200077
:103F30002830032201009847200010BD80FD0110A9
:103F400070FD0110F8B50400022A05D0032A1CD028
:103F5000012A17D00020F8BD18200E6807F012FAC9
:103F600005000830286037687668002F1CD00F2EB7
:103F70001FD8012E2AD13B782B7200236E60835507
:103F80002560E7E70B680360E4E70468002CE1D0F4
:103F9000230020680833984201D007F0F7F9182170
:103FA000200007F0F7F9D5E7002EE6D00A4816F012
:103FB000D9FF002E0DDB701C07F0E4F9AE6028601D
:103FC0003200390007F0D8F92868D6E7002ED4D09F
:103FD000F6E7024816F0DEFFD0FB0110FCFB0110F3
:103FE000F8B50400022A05D0032A1CD0012A17D0F4
:103FF0000020F8BD18200E6807F0C4F9050008304D
:10400000286037687668002F1CD00F2E1FD8012E2D
:104010002AD13B782B7200236E6083552560E7E739
:104020000B680360E4E70468002CE1D023002068FB
:104030000833984201D007F0A9F91821200007F0B1
:10404000A9F9D5E7002EE6D00A4816F08BFF002E1E
:104050000DDB701C07F096F9AE6028603200390065
:1040600007F08AF92868D6E7002ED4D0F6E7024890
:1040700016F090FFD0FB0110FCFB0110F8B5040016
:10408000022A05D0032A1CD0012A17D00020F8BD2F
:1040900018200E6807F076F90500083028603768A8
:1040A0007668002F1CD00F2E1FD8012E2AD13B7806
:1040B0002B7200236E6083552560E7E70B68036071
:1040C000E4E70468002CE1D023002068083398421C
:1040D00001D007F05BF91821200007F05BF9D5E764
:1040E000002EE6D00A4816F03DFF002E0DDB701CB6
:1040F00007F048F9AE6028603200390007F03CF95B
:104100002868D6E7002ED4D0F6E7024816F042FF22
:10411000D0FB0110FCFB0110F8B50400022A05D009
:10412000032A1CD0012A17D00020F8BD18200E68E1
:1041300007F028F905000830286037687668002FF6
:104140001CD00F2E1FD8012E2AD13B782B720023B2
:104150006E6083552560E7E70B680360E4E7046859
:10416000002CE1D0230020680833984201D007F0EA
:104170000DF91821200007F00DF9D5E7002EE6D043
:104180000A4816F0EFFE002E0DDB701C07F0FAF85F
:10419000AE6028603200390007F0EEF82868D6E7F4
:1041A000002ED4D0F6E7024816F0F4FED0FB011042
:1041B000FCFB0110F0B54746CE46856980B5076A1D
:1041C000BD421CDA43699C46C36998469C4516DA91
:1041D000036920241E681B69994649466346694362
:1041E0005B1841445B004900F3187118828C22432C
:1041F0001A8002339942F9D10135BD42EDD10CBC90
:1042000090469946F0BDC04630B5050083B0080021
:104210000C00FFF7CFFF2B68D86EFCF703FB0028DC
:104220000BD1074A074B0192009300220023002183
:10423000200015F043F803B030BD034AF2E7C04652
:104240009CFF0110A8FF011094FF011010B5096830
:10425000FFF7DAFF10BDC04630B5436F83B05C682E
:1042600008000D00FFF7A6FF002C05D023682000F2
:104270005B6A984700280BD1064A074B01920093CE
:10428000002200230021280015F018F803B030BDEB
:10429000024AF2E70CFF011010FF0110A8260210DD
:1042A00010B509680068FFF7D7FF10BD8E2370B501
:1042B00015000C000968C26E890052185B00D358C3
:1042C00084B028005E68FFF775FF24680134002E73
:1042D0000ED03000FDF766FD064B0290009301946E
:1042E000002300220021280014F0E8FF04B070BD74
:1042F0000148F1E770000210E81C02100A68010092
:1043000010B501C9FFF7D2FF10BDC04670B50E0051
:104310001500C16E0F4A33688A585B0184B02800CB
:104320009C58FFF747FF33680B4AD65C002C0FD030
:10433000236820001B6A9847084B0290009301965F
:10434000002300220021280014F0B8FF04B070BD43
:104350000348F1E734810100D8FA0110ECFF0110A5
:10436000E81C02100A68010010B501C9FFF7CEFF72
:1043700010BDC04630B5050083B008000C00FFF743
:1043800019FF2A232A68FF33D26ED35C002B0BD18E
:10439000064A074B019200930022002300212000CF
:1043A00014F08CFF03B030BD024AF2E7A8260210D9
:1043B000C4FF01100CFF011010B50968FFF7DAFF08
:1043C00010BDC046962330B5C26E5B00D55883B091
:1043D00008000C00FFF7EEFE002D0DD02800FDF7C1
:1043E00037FD064B0190009300220023002120009E
:1043F00014F064FF03B030BD0148F2E74C01021035
:10440000E81C021010B509680068FFF7DBFF10BD5B
:1044100030B50C0005008DB0816E104A05A80FF074
:104420004DFF200015F054FD0D4B0E4A05A801A9C3
:1044300003930195029404920FF06CFF039B002BF1
:1044400003D001A9032208009847069808AB9842B8
:1044500001D006F09BFF0DB030BDC046E4FE011058
:10446000292D00101536001030B50E4B05000068E0
:1044700085B0C1180C4B0D4C0393A83001236A463C
:10448000029416F001FA029B002B03D00322694626
:10449000684698472868034BC118FFF7B9FF05B075
:1044A00030BDC0461C0D0000D92F0010712B00102C
:1044B00010B5FFF7D9FF10BD30B50C0005008DB069
:1044C000816E104A05A80FF0F9FE200015F000FDDE
:1044D0000D4B0E4A05A801A903930195029404927D
:1044E0000FF018FF039B002B03D001A90322080043
:1044F0009847069808AB984201D006F047FF0DB0E8
:1045000030BDC046D0FE01103D2D00103D370010DB
:1045100030B50E4B0500006885B0C1180C4B0D4C32
:104520000393A83001236A46029416F0ADF9029B6A
:10453000002B03D003226946684698472868034B3E
:10454000C118FFF7B9FF05B030BDC0464C080000E8
:10455000552F0010152A001010B5FFF7D9FF10BD18
:10456000F0B5C646002300B586B08F6802AD0400E2
:104570000E00AB60002F24D002222800B847F36859
:10458000B76898466E4629000822300006F0F4FE0F
:104590002B00220003CA03C3230006CE06C3E26831
:1045A000A368059242460493A760E260002B03D003
:1045B0000322290028009847200006B004BC90463A
:1045C000F0BD059B9846DDE770B5184B84B0C21866
:1045D000174B184E039304000123A8300D0011005F
:1045E0006A46029616F050F9029B002B03D0032274
:1045F0006946684698470022AB680292002B07D0B4
:104600000232290068469847EA68AB680392029331
:10461000094B6946E018FFF7A3FF029B002B03D06C
:10462000032269466846984704B070BD2410000014
:10463000353000101D2D00106C100000F0B5C6467E
:10464000002300B586B08F6802AD04000E00AB6099
:10465000002F24D002222800B847F368B768984694
:104660006E4629000822300006F086FE2B0022004C
:1046700003CA03C3230006CE06C3E268A3680592FB
:1046800042460493A760E260002B03D00322290076
:1046900028009847200006B004BC9046F0BD059B5A
:1046A0009846DDE7F0B5C646002300B586B08F68B2
:1046B00002AD04000E00AB60002F24D002222800BF
:1046C000B847F368B76898466E462900082230005C
:1046D00006F052FE2B00220003CA03C3230006CEBD
:1046E00006C3E268A368059242460493A760E260AD
:1046F000002B03D00322290028009847200006B091
:1047000004BC9046F0BD059B9846DDE7F0B5C64673
:1047100000B5374B8CB0C71805000C0038000021DD
:10472000160015F0F1FBA82100228846A368A844D2
:104730000992002B07D00232210007A89847E268AF
:10474000A3680A92099301233900404607AA16F08C
:104750009BF8099B002B03D007A903220800984768
:104760000022B36807950A9208AC002B07D00222FA
:10477000200031009847F268B3680B920A93002337
:1047800014209846059306F0FDFD010002000798ED
:1047900001AB01C11800C0CCC0C008AC2000C0C92A
:1047A000C0C0111D41CB41C1124B0B99E8184546C1
:1047B0000A9B17690A95D3600F4D104B116103A92D
:1047C000059303920B970695FFF76CFF059B002B53
:1047D00003D003A90322080098470A9B002B03D0AB
:1047E00003222100200098470CB004BC9046F0BD85
:1047F0008C100000981100006D2D0010B5370010CE
:1048000000B50F4B89B00F490F4A07930F4B069124
:10481000039204A96A4602930090FFF777FF029B78
:10482000002B03D00322694668469847069B002B5D
:1048300003D004A903220800984709B000BDC04670
:104840008930001029290010F1300010352900109E
:1048500010B50068FFF7D4FF10BDC04610B5104B6F
:1048600088B0104A104C0793104B049100910392AA
:1048700004A96A46029301900694FFF747FF029B42
:10488000002B03D00322694668469847069B002BFD
:1048900003D004A903220800984708B010BDC04601
:1048A0003D380010995B0010C5290010D92900106F
:1048B00010B509680068FFF7D1FF10BD10B5036F90
:1048C00088B01B68002B1DD00F49104A104C049370
:1048D0000193104B0691039204A96A460293059036
:1048E00000900794FFF712FF029B002B03D00322D6
:1048F000694668469847069B002B03D004A903220B
:104900000800984708B010BD552A00105931001012
:1049100031310010692A001010B50068FFF7CEFF92
:1049200010BDC04610B5104B88B0104A104C07930C
:10493000104B04910091039204A96A4602930190DE
:104940000694FFF7E3FE029B002B03D00322694687
:1049500068469847069B002B03D004A90322080051
:10496000984708B010BDC046BD380010C95B0010A4
:10497000212B0010352B001010B509680068FFF7D7
:10498000D1FF10BD10B5436F88B05B68002B1CD001
:104990000F49104A104C04930193104B0691039257
:1049A00004A96A46029300900794FFF7AFFE029BAA
:1049B000002B03D00322694668469847069B002BCC
:1049C00003D004A903220800984708B010BDC046D0
:1049D000912B00103D320010B9310010A52B0010B2
:1049E00010B50068FFF7CEFF10BDC04670B5036874
:1049F00088B05B6F06005C68002C26D0236820001E
:104A00005B6A9847002822D1164B04AD04943068A5
:104A1000EB601549154A164B0094A96003922900D2
:104A20006A460293FFF772FE029B002B03D003221B
:104A3000694668469847AB68002B03D003222900DB
:104A400028009847306814F0A5FD08B070BD094BE8
:104A500004AD04943068EB600749084A0094084BA1
:104A6000DBE7C04619320010292C0010652E00101B
:104A70003D2C0010E9310010012C0010512E0010C7
:104A8000152C001010B5FFF7B1FF10BD962310B51F
:104A9000C26E5B00D35888B0002B1CD00F49104A5F
:104AA000104C04930193104B0691039204A96A469B
:104AB000029300900794FFF729FE029B002B03D07E
:104AC0000322694668469847069B002B03D004A939
:104AD00003220800984708B010BDC046C12C001042
:104AE00061320010B9300010D52C001010B50068EC
:104AF000FFF7CCFF10BDC046F0B5C646002300B599
:104B000086B08F6802AD04000E00AB60002F24D089
:104B100002222800B847F368B76898466E46290015
:104B20000822300006F028FC2B00220003CA03C331
:104B3000230006CE06C3E268A368059242460493AA
:104B4000A760E260002B03D00322290028009847C9
:104B5000200006B004BC9046F0BD059B9846DDE7FA
:104B600030B5174B0400006885B0C118154B164DC1
:104B70000393A83001236A46029515F085FE029B37
:104B8000002B03D0032269466846984720680C4BE7
:104B9000C118FFF73DFC21680C4B0D4AC8180D4B9E
:104BA0000091694602930392FFF7A6FF029B002B38
:104BB00003D0032269466846984705B030BDC04619
:104BC000D0110000B12F0010152B0010441200006E
:104BD00079490010492B001010B5FFF7C1FF10BD37
:104BE00030B5174B0400006885B0C118154B164D41
:104BF0000393A83001236A46029515F045FE029BF7
:104C0000002B03D0032269466846984720680C4B66
:104C1000C118FFF751FC21680C4B0D4AC8180D4B09
:104C20000091694602930392FFF766FF029B002BF7
:104C300003D0032269466846984705B030BDC04698
:104C4000D01100002D2F0010B929001044120000CF
:104C5000B1480010ED29001010B5FFF7C1FF10BDDD
:104C6000F0B5C646002300B586B08F6802AD0400DB
:104C70000E00AB60002F24D002222800B847F36852
:104C8000B76898466E4629000822300006F074FB8B
:104C90002B00220003CA03C3230006CE06C3E2682A
:104CA000A368059242460493A760E260002B03D0FC
:104CB0000322290028009847200006B004BC904633
:104CC000F0BD059B9846DDE7F0B5DE4657464E46FB
:104CD00045461E23E0B5B3B00E0015000093002238
:104CE00032330021040014F02BFC78229446FD4B53
:104CF000A444604623608023A666E56631219B4676
:104D0000039015F0D3FB88239C46A4446546A34436
:104D100032215846049515F0C9FB90239C46A444C3
:104D2000664628003321059615F0C0FB98239C4663
:104D3000A444654630003421069515F0B7FBA02346
:104D40009C46A4446346664628003521089315F026
:104D5000ADFB3000362115F0A9FBE34AFC27944651
:104D6000E24AA4449146A82265469446A444624679
:104D700012237F0060460D920093062234330521F2
:104D8000B8460326129515F0BFFB0623A044002267
:104D90000196009300214033404614F0D7FFA3232F
:104DA0009B009A46A2445346D14950460E9315F0B3
:104DB000FFFAB9239B009A46A24450460123CD49ED
:104DC0009A460F9015F0F4FACF239B009C46A4441A
:104DD00063461093E5239B0060469C46A4446346CB
:104DE000C549099315F0E4FAF52189008C46A444DD
:104DF000624667460998119215F058F9380015F087
:104E000055F9BE49280015F0D3FAA023DB00E518B8
:104E10000623A14400220021019600934846403316
:104E200014F094FFA823DB009C46A44463462800AA
:104E300067460A9315F03AF9B021C9008C46A4449C
:104E400062463800079215F031F9B823DB009C4622
:104E5000A4446346674607980B9315F027F938007A
:104E600015F024F9C023DB009C46A4446346A44902
:104E70006046139315F09CFACB23DB009C46A444B8
:104E800063461493D623DB0060469C46A4446346E5
:104E90009C496746159315F08BFA0623002201966C
:104EA000009338004033002114F050FF964B97498F
:104EB0009C46A44463466046169315F079FA944BD9
:104EC00094499C46A44463466046179315F070FAD3
:104ED000914B92499C46A44463466046189315F052
:104EE00067FA8F4B0022E018534601930E3300936C
:104EF0000021373314F02AFF8E2140220901601867
:104F0000009246230022002115F012FF8549A127B7
:104F10008C463F01A44461466046BC460523A44438
:104F200067460022199101960093002141330C97A6
:104F300014F00CFFA52109018C46A4446146674684
:104F40000C981A9115F0B2F8380015F0AFF8A920B6
:104F500000018446A444604673491B9015F028FA6A
:104F60007248B42784463F01A4446046BC46A4442A
:104F700067466F491D971C9015F01AFA0623002208
:104F80000196009338004033002114F0DFFE694899
:104F900069498446A44460461E9015F009FA6748A2
:104FA00067498446A44460461F9015F001FA65489D
:104FB000654F8446A4446046BC46A44467466349A2
:104FC0002197209015F0F4F9380015F06FF860493A
:104FD0000F23601851465F4F019100930022373331
:104FE000002114F0B3FEBC46DB21A44440226746F6
:104FF000090160180092462300220021229715F033
:1050000097FE0623019600933800403300220021CA
:1050100014F09CFEEE2000018446A44462464E49F2
:105020006046239215F0C4F94C484D498446A44487
:1050300062466046249215F0BBF9F92109010C275C
:10504000601851460097019146230022002114F078
:105050007DFE0097434F4449BC46A4446746601810
:10506000462300220021259714F06AFA06230196B0
:105070000093380040330022002114F067FE89209D
:1050800040018446A444624638496046269215F0A1
:105090008FF9374837498446A444624660462792D0
:1050A00015F086F934490F23601851460093019199
:1050B00037330022002114F049FE0D9B20009A4650
:1050C0001900012214F072FA2C4F2D4E0123504684
:1050D00041462EAA3197309615F0D6FB309B002B17
:1050E00054D04FE0B0FD0110140400006C04000027
:1050F0006400021018010210C8FD0110D4FD011057
:10510000DCFD0110ECFD011044070000FCFD011066
:105110009C07000010FE0110F407000024FE01109F
:105120004C0800007C09000030FE0110E80A000075
:1051300040FE0110D40B000050FE01102C0C0000AA
:1051400064FE0110840C0000DC0C000078FE0110ED
:105150001C0D00004C0E000084FE0110380F0000F2
:105160008CFE01108C1000002410000094FE011031
:105170007811000098FE0110D01100008D2E001053
:105180003D2800102EA90322080098472000A94BB3
:10519000A94AD0302EA930932E943192FFF74EFABF
:1051A000309B002B03D02EA90322080098470399B7
:1051B0000E9815F081F80100404614F00FFF594693
:1051C0000F9815F079F80100404614F007FF049994
:1051D000109815F071F80100404614F0FFFE059993
:1051E000099815F069F80100404614F0F7FE069999
:1051F000119815F061F80100404614F0EFFE08998F
:10520000129815F059F80100404614F0E7FEA2216B
:10521000012089006054AB21884B894A89006018BD
:105220002EA930932E943192FFF73CFA309B002B3D
:1052300003D02EA9032208009847C121814B824A3E
:10524000890060182EA930932E943192FFF72AFA24
:10525000309B002B03D02EA9032208009847D721AA
:105260007A4B7B4A890060182EA930932E94319294
:10527000FFF718FA309B002B03D02EA90322080059
:105280009847DB21734B744A890060182EA930932C
:105290002E943192FFF764F9309B002B03D02EA996
:1052A000032208009847ED216C4B6D4A8900601875
:1052B0002EA930932E943192FFF7F4F9309B002BF6
:1052C00003D02EA9032208009847F121654B664AB6
:1052D000890060182EA930932E943192FFF740F97F
:1052E000309B002B03D02EA9032208009847FD21F4
:1052F0005E4B5F4A890060182EA930932E9431923C
:10530000FFF7D0F9309B002B03D02EA90322080011
:1053100098475849584B594A60182EA930932E94F3
:105320003192FFF71DF9309B002B03D02EA90322E9
:10533000080098475249534B534A60182EA930939E
:105340002E943192FFF7AEF9309B002B03D02EA99B
:105350000322080098470399280014F0ADFF0100CC
:10536000484614F03BFE59460A9814F0A5FF010088
:10537000484614F033FE0499079814F09DFF01008D
:10538000484614F02BFE05990B9814F095FF010088
:10539000484614F023FE0699139814F08DFF01007F
:1053A000484614F01BFE0899149814F085FF01007C
:1053B000484614F013FE354901220691344900266F
:1053C0008A463449344B89463449E25488460A9B1C
:1053D0002AAF7B60079B2A95BB600B9BFB60069BFB
:1053E00028003193534630302EA930932E942F96B7
:1053F000FFF7B6F8309B002B03D02EA9032208003C
:1054000098474B4628003193434620302EA92F96CB
:1054100030932E94FFF746F9309B0136002B03D0D2
:105420002EA9032208009847B300042E38D0FD5857
:10543000D5E7C046492800106130001069280010E7
:105440003D3300108928001081330010B12800106E
:10545000C9330010C528001005440010D9280010D9
:10546000DD300010ED2800104D4200100129001021
:10547000653700100404000015290010B94300101E
:105480003404000049290010514800106543001001
:105490005D29001079360010FC04000085290010F9
:1054A000C421794B794AC90060182EA930932E94F3
:1054B0003192FFF7F7F8309B002B03D02EA903227F
:1054C00008009847CF21724B724AC90060182EA974
:1054D00030932E943192FFF7E5F8309B002B03D0E8
:1054E0002EA90322080098470399169814F0E4FEA9
:1054F000159D0100280014F071FD5946179814F00D
:10550000DBFE0100280014F069FD0499189814F0DE
:10551000D3FE0100280014F061FDE8210120C9003C
:1055200060545D495D4B5E4A60182EA930932E94FD
:105530003192FFF7B7F8309B002B03D02EA903223E
:10554000080098475749584B584A60182EA930937D
:105550002E943192FFF7A6F8309B002B03D02EA992
:105560000322080098475249524B534A60182EA90B
:1055700030932E943192FFF795F8309B002B03D097
:105580002EA90322080098474C494D4B4D4A6018FC
:105590002EA930932E943192FFF762FB309B002BA3
:1055A00003D02EA90322080098478C21464B474A76
:1055B000090160182EA930932E943192FFF79CFABE
:1055C000309B002B03D02EA90322080098470C9B88
:1055D000039918009A4614F06FFE199D01002800E7
:1055E00014F0FCFC1A9E5946300014F065FE0100D0
:1055F000280014F0F3FC04991B9814F05DFE0100E0
:10560000280014F0EBFC05991C9814F055FE0100DD
:10561000280014F0E3FC002551462D4829968146C8
:105620002C4E2D480122B24680462E000D002B4BF9
:105630002B4F2891E2544B4628003193434630309B
:105640002EA930932E942F96FEF78AFF309B002BC5
:1056500003D02EA903220800984728005346203083
:105660002EA930932E942F963197FFF71BF8309B7D
:10567000002B03D02EA9032208009847012E31D019
:10568000299D0126D7E7C046A52900101534001032
:10569000012A0010594C001064070000212A001054
:1056A00059450010BC070000412A00105534001075
:1056B000140800007D2A0010194900106C09000030
:1056C000912A0010ED5F0010A52A00108D380010FF
:1056D000FD420010E12A0010B92A00100C0A000057
:1056E00045350010AB21994B994A090160182EA944
:1056F00030932E943192FEF7D5FF309B002B03D0D0
:105700002EA90322080098479249934B934A6018A8
:105710002EA930932E943192FEF7C4FF309B002BBC
:1057200003D02EA903220800984703991E9814F06D
:10573000C3FD1D9D0100280014F050FC59461F9820
:1057400014F0BAFD0100280014F048FC04992098D8
:1057500014F0B2FD0100280014F040FC05992198D6
:1057600014F0AAFD0100280014F038FCBD2101202E
:10577000090160547A497B4B7B4A60182EA930930B
:105780002E943192FEF78EFF309B002B03D02EA972
:105790000322080098477549754B764A60182EA970
:1057A00030932E943192FEF77DFF309B002B03D077
:1057B0002EA90322080098476F49704B704A601861
:1057C0002EA930932E943192FEF76CFF309B002B64
:1057D00003D02EA90322080098476A496A4B6B4AF6
:1057E00060182EA930932E943192FEF7B9FE309BAB
:1057F000002B03D02EA90322080098476449654B6B
:10580000654A60182EA930932E943192FEF74AFF14
:10581000309B002B03D02EA9032208009847D921E2
:105820005E4B5F4A090160182EA930932E94319285
:10583000FFF762F9309B002B03D02EA9032208004A
:1058400098475849584B594A60182EA930932E94BE
:105850003192FFF705FA309B002B03D02EA90322CB
:10586000080098470399239814F026FD229D010013
:10587000280014F0B3FB5946249814F01DFD0100D4
:10588000280014F0ABFB012049494A4B60544A4AB6
:10589000243160182EA930932E943192FEF702FF26
:1058A000309B002B03D02EA90322080098474349C0
:1058B000434B444A60182EA930932E943192FEF740
:1058C000F1FE309B002B03D02EA90322080098473D
:1058D0003D493E4B3E4A60182EA930932E9431929A
:1058E000FFF70AF9309B002B03D02EA903220800F2
:1058F00098470399269814F0DFFC259D01002800A5
:1059000014F06CFB5946279814F0D6FC01002800CF
:1059100014F064FB01202F492F4B605420002F4AC4
:1059200048302EA930933192FEF71AFE309B002B9F
:1059300003D02EA9032208009847200033B03CBCB6
:1059400090469946A246AB46F0BDC046012B0010DA
:10595000A1340010080B00005D2B0010D94B001083
:10596000F40B00007D2B0010B1440010A40C0000CB
:10597000B92B0010E14900104C0C0000D92B00108D
:10598000E13400100C0D0000ED2B0010A1420010BE
:10599000FC0C0000512C0010854A0010652C0010F2
:1059A0001D3900103C0E0000792C0010DD5D001048
:1059B000DC0E0000AD2C0010093A0010580F00005A
:1059C000E92C0010ED4A001004100000FD2C00101E
:1059D0006D3900101C110000112D0010F93200105B
:1059E000F0B54E46DE46454657460400E0B5080091
:1059F00083B0894617F0FCFF63680600984642466C
:105A0000374B9B1A834264D308239A462568A244E5
:105A10001718554518D0A3689F4218D8002E08D0F3
:105A200028004044012E47D03200494605F0A4FC2E
:105A30002568002320006760EB5503B03CBC90460E
:105A40009946A246AB46F0BD0F230F2FE6D9002F93
:105A500042DB5B0001939F421CD3781C019705F049
:105A600091FC43460500002B1CD123689B46002E69
:105A700007D04346E818012E27D03200494605F0EA
:105A80007BFCDA4502D0584605F080FC019B25607E
:105A9000A360CEE7581C002BE1DA8020104B0006F3
:105AA0000193DCE723689B464346012B09D042461D
:105AB000594605F061FCDAE74B461B780370256810
:105AC000B7E75B461B780370D1E74B461B78037042
:105AD000D7E7044815F05EFA034815F05BFAC046B4
